{
    "_format": "hh-sol-artifact-1",
    "contractName": "BurgerPunksNFT",
    "sourceName": "contracts/BurgerPunksNFT.sol",
    "abi": [
        {
            "inputs": [],
            "stateMutability": "payable",
            "type": "constructor"
        },
        {
            "anonymous": false,
            "inputs": [
                {
                    "indexed": true,
                    "internalType": "address",
                    "name": "owner",
                    "type": "address"
                },
                {
                    "indexed": true,
                    "internalType": "address",
                    "name": "approved",
                    "type": "address"
                },
                {
                    "indexed": true,
                    "internalType": "uint256",
                    "name": "tokenId",
                    "type": "uint256"
                }
            ],
            "name": "Approval",
            "type": "event"
        },
        {
            "anonymous": false,
            "inputs": [
                {
                    "indexed": true,
                    "internalType": "address",
                    "name": "owner",
                    "type": "address"
                },
                {
                    "indexed": true,
                    "internalType": "address",
                    "name": "operator",
                    "type": "address"
                },
                {
                    "indexed": false,
                    "internalType": "bool",
                    "name": "approved",
                    "type": "bool"
                }
            ],
            "name": "ApprovalForAll",
            "type": "event"
        },
        {
            "anonymous": false,
            "inputs": [
                {
                    "indexed": true,
                    "internalType": "address",
                    "name": "previousOwner",
                    "type": "address"
                },
                {
                    "indexed": true,
                    "internalType": "address",
                    "name": "newOwner",
                    "type": "address"
                }
            ],
            "name": "OwnershipTransferred",
            "type": "event"
        },
        {
            "anonymous": false,
            "inputs": [
                {
                    "indexed": true,
                    "internalType": "address",
                    "name": "from",
                    "type": "address"
                },
                {
                    "indexed": true,
                    "internalType": "address",
                    "name": "to",
                    "type": "address"
                },
                {
                    "indexed": true,
                    "internalType": "uint256",
                    "name": "tokenId",
                    "type": "uint256"
                }
            ],
            "name": "Transfer",
            "type": "event"
        },
        {
            "inputs": [
                {
                    "internalType": "address",
                    "name": "to",
                    "type": "address"
                },
                {
                    "internalType": "uint256",
                    "name": "tokenId",
                    "type": "uint256"
                }
            ],
            "name": "approve",
            "outputs": [],
            "stateMutability": "nonpayable",
            "type": "function"
        },
        {
            "inputs": [
                {
                    "internalType": "address",
                    "name": "owner",
                    "type": "address"
                }
            ],
            "name": "balanceOf",
            "outputs": [
                {
                    "internalType": "uint256",
                    "name": "",
                    "type": "uint256"
                }
            ],
            "stateMutability": "view",
            "type": "function"
        },
        {
            "inputs": [
                {
                    "internalType": "uint256",
                    "name": "tokenId",
                    "type": "uint256"
                }
            ],
            "name": "getApproved",
            "outputs": [
                {
                    "internalType": "address",
                    "name": "",
                    "type": "address"
                }
            ],
            "stateMutability": "view",
            "type": "function"
        },
        {
            "inputs": [
                {
                    "internalType": "address",
                    "name": "owner",
                    "type": "address"
                },
                {
                    "internalType": "address",
                    "name": "operator",
                    "type": "address"
                }
            ],
            "name": "isApprovedForAll",
            "outputs": [
                {
                    "internalType": "bool",
                    "name": "",
                    "type": "bool"
                }
            ],
            "stateMutability": "view",
            "type": "function"
        },
        {
            "inputs": [],
            "name": "isPublicMintEnabled",
            "outputs": [
                {
                    "internalType": "bool",
                    "name": "",
                    "type": "bool"
                }
            ],
            "stateMutability": "view",
            "type": "function"
        },
        {
            "inputs": [],
            "name": "maxPerWallet",
            "outputs": [
                {
                    "internalType": "uint256",
                    "name": "",
                    "type": "uint256"
                }
            ],
            "stateMutability": "view",
            "type": "function"
        },
        {
            "inputs": [],
            "name": "maxSupply",
            "outputs": [
                {
                    "internalType": "uint256",
                    "name": "",
                    "type": "uint256"
                }
            ],
            "stateMutability": "view",
            "type": "function"
        },
        {
            "inputs": [
                {
                    "internalType": "uint256",
                    "name": "quantity_",
                    "type": "uint256"
                }
            ],
            "name": "mint",
            "outputs": [],
            "stateMutability": "payable",
            "type": "function"
        },
        {
            "inputs": [],
            "name": "mintPrice",
            "outputs": [
                {
                    "internalType": "uint256",
                    "name": "",
                    "type": "uint256"
                }
            ],
            "stateMutability": "view",
            "type": "function"
        },
        {
            "inputs": [],
            "name": "name",
            "outputs": [
                {
                    "internalType": "string",
                    "name": "",
                    "type": "string"
                }
            ],
            "stateMutability": "view",
            "type": "function"
        },
        {
            "inputs": [],
            "name": "owner",
            "outputs": [
                {
                    "internalType": "address",
                    "name": "",
                    "type": "address"
                }
            ],
            "stateMutability": "view",
            "type": "function"
        },
        {
            "inputs": [
                {
                    "internalType": "uint256",
                    "name": "tokenId",
                    "type": "uint256"
                }
            ],
            "name": "ownerOf",
            "outputs": [
                {
                    "internalType": "address",
                    "name": "",
                    "type": "address"
                }
            ],
            "stateMutability": "view",
            "type": "function"
        },
        {
            "inputs": [],
            "name": "renounceOwnership",
            "outputs": [],
            "stateMutability": "nonpayable",
            "type": "function"
        },
        {
            "inputs": [
                {
                    "internalType": "address",
                    "name": "from",
                    "type": "address"
                },
                {
                    "internalType": "address",
                    "name": "to",
                    "type": "address"
                },
                {
                    "internalType": "uint256",
                    "name": "tokenId",
                    "type": "uint256"
                }
            ],
            "name": "safeTransferFrom",
            "outputs": [],
            "stateMutability": "nonpayable",
            "type": "function"
        },
        {
            "inputs": [
                {
                    "internalType": "address",
                    "name": "from",
                    "type": "address"
                },
                {
                    "internalType": "address",
                    "name": "to",
                    "type": "address"
                },
                {
                    "internalType": "uint256",
                    "name": "tokenId",
                    "type": "uint256"
                },
                {
                    "internalType": "bytes",
                    "name": "data",
                    "type": "bytes"
                }
            ],
            "name": "safeTransferFrom",
            "outputs": [],
            "stateMutability": "nonpayable",
            "type": "function"
        },
        {
            "inputs": [
                {
                    "internalType": "address",
                    "name": "operator",
                    "type": "address"
                },
                {
                    "internalType": "bool",
                    "name": "approved",
                    "type": "bool"
                }
            ],
            "name": "setApprovalForAll",
            "outputs": [],
            "stateMutability": "nonpayable",
            "type": "function"
        },
        {
            "inputs": [
                {
                    "internalType": "string",
                    "name": "baseTokenUri_",
                    "type": "string"
                }
            ],
            "name": "setBasrTokenUri",
            "outputs": [],
            "stateMutability": "nonpayable",
            "type": "function"
        },
        {
            "inputs": [
                {
                    "internalType": "bool",
                    "name": "isPublicMintEnabled_",
                    "type": "bool"
                }
            ],
            "name": "setPublicMintEnabled",
            "outputs": [],
            "stateMutability": "nonpayable",
            "type": "function"
        },
        {
            "inputs": [
                {
                    "internalType": "bytes4",
                    "name": "interfaceId",
                    "type": "bytes4"
                }
            ],
            "name": "supportsInterface",
            "outputs": [
                {
                    "internalType": "bool",
                    "name": "",
                    "type": "bool"
                }
            ],
            "stateMutability": "view",
            "type": "function"
        },
        {
            "inputs": [],
            "name": "symbol",
            "outputs": [
                {
                    "internalType": "string",
                    "name": "",
                    "type": "string"
                }
            ],
            "stateMutability": "view",
            "type": "function"
        },
        {
            "inputs": [
                {
                    "internalType": "uint256",
                    "name": "tokenId",
                    "type": "uint256"
                }
            ],
            "name": "tokenURI",
            "outputs": [
                {
                    "internalType": "string",
                    "name": "",
                    "type": "string"
                }
            ],
            "stateMutability": "view",
            "type": "function"
        },
        {
            "inputs": [
                {
                    "internalType": "uint256",
                    "name": "tokenId_",
                    "type": "uint256"
                }
            ],
            "name": "tokenUri",
            "outputs": [
                {
                    "internalType": "string",
                    "name": "",
                    "type": "string"
                }
            ],
            "stateMutability": "view",
            "type": "function"
        },
        {
            "inputs": [],
            "name": "totalSupply",
            "outputs": [
                {
                    "internalType": "uint256",
                    "name": "",
                    "type": "uint256"
                }
            ],
            "stateMutability": "view",
            "type": "function"
        },
        {
            "inputs": [
                {
                    "internalType": "address",
                    "name": "from",
                    "type": "address"
                },
                {
                    "internalType": "address",
                    "name": "to",
                    "type": "address"
                },
                {
                    "internalType": "uint256",
                    "name": "tokenId",
                    "type": "uint256"
                }
            ],
            "name": "transferFrom",
            "outputs": [],
            "stateMutability": "nonpayable",
            "type": "function"
        },
        {
            "inputs": [
                {
                    "internalType": "address",
                    "name": "newOwner",
                    "type": "address"
                }
            ],
            "name": "transferOwnership",
            "outputs": [],
            "stateMutability": "nonpayable",
            "type": "function"
        },
        {
            "inputs": [
                {
                    "internalType": "address",
                    "name": "",
                    "type": "address"
                }
            ],
            "name": "walletMints",
            "outputs": [
                {
                    "internalType": "uint256",
                    "name": "",
                    "type": "uint256"
                }
            ],
            "stateMutability": "view",
            "type": "function"
        },
        {
            "inputs": [],
            "name": "withdraw",
            "outputs": [],
            "stateMutability": "nonpayable",
            "type": "function"
        },
        {
            "inputs": [],
            "name": "withdrawWallet",
            "outputs": [
                {
                    "internalType": "address payable",
                    "name": "",
                    "type": "address"
                }
            ],
            "stateMutability": "view",
            "type": "function"
        }
    ],
    "bytecode": "0x60806040526040518060400160405280600b81526020017f42757267657250756e6b730000000000000000000000000000000000000000008152506040518060400160405280600281526020017f5250000000000000000000000000000000000000000000000000000000000000815250816000908162000081919062000425565b50806001908162000093919062000425565b505050620000b6620000aa620000dd60201b60201c565b620000e560201b60201c565b600060078190555060006008819055506122616009819055506001600a819055506200050c565b600033905090565b6000600660009054906101000a900473ffffffffffffffffffffffffffffffffffffffff16905081600660006101000a81548173ffffffffffffffffffffffffffffffffffffffff021916908373ffffffffffffffffffffffffffffffffffffffff1602179055508173ffffffffffffffffffffffffffffffffffffffff168173ffffffffffffffffffffffffffffffffffffffff167f8be0079c531659141344cd1fd0a4f28419497f9722a3daafe3b4186f6b6457e060405160405180910390a35050565b600081519050919050565b7f4e487b7100000000000000000000000000000000000000000000000000000000600052604160045260246000fd5b7f4e487b7100000000000000000000000000000000000000000000000000000000600052602260045260246000fd5b600060028204905060018216806200022d57607f821691505b602082108103620002435762000242620001e5565b5b50919050565b60008190508160005260206000209050919050565b60006020601f8301049050919050565b600082821b905092915050565b600060088302620002ad7fffffffffffffffffffffffffffffffffffffffffffffffffffffffffffffffff826200026e565b620002b986836200026e565b95508019841693508086168417925050509392505050565b6000819050919050565b6000819050919050565b60006200030662000300620002fa84620002d1565b620002db565b620002d1565b9050919050565b6000819050919050565b6200032283620002e5565b6200033a62000331826200030d565b8484546200027b565b825550505050565b600090565b6200035162000342565b6200035e81848462000317565b505050565b5b8181101562000386576200037a60008262000347565b60018101905062000364565b5050565b601f821115620003d5576200039f8162000249565b620003aa846200025e565b81016020851015620003ba578190505b620003d2620003c9856200025e565b83018262000363565b50505b505050565b600082821c905092915050565b6000620003fa60001984600802620003da565b1980831691505092915050565b6000620004158383620003e7565b9150826002028217905092915050565b6200043082620001ab565b67ffffffffffffffff8111156200044c576200044b620001b6565b5b62000458825462000214565b620004658282856200038a565b600060209050601f8311600181146200049d576000841562000488578287015190505b62000494858262000407565b86555062000504565b601f198416620004ad8662000249565b60005b82811015620004d757848901518255600182019150602085019450602081019050620004b0565b86831015620004f75784890151620004f3601f891682620003e7565b8355505b6001600288020188555050505b505050505050565b613700806200051c6000396000f3fe6080604052600436106101b75760003560e01c806370a08231116100ec578063a22cb4651161008a578063d5abeb0111610064578063d5abeb01146105eb578063e985e9c514610616578063f0293fd314610653578063f2fde38b14610690576101b7565b8063a22cb4651461055c578063b88d4fde14610585578063c87b56dd146105ae576101b7565b806385d178f4116100c657806385d178f4146104bf5780638da5cb5b146104ea57806395d89b4114610515578063a0712d6814610540576101b7565b806370a0823114610442578063715018a61461047f578063818668d714610496576101b7565b806323b872dd11610159578063453c231011610133578063453c2310146103865780635f8acf53146103b15780636352211e146103da5780636817c76c14610417576101b7565b806323b872dd1461031d5780633ccfd60b1461034657806342842e0e1461035d576101b7565b8063081812fc11610195578063081812fc1461024f578063095ea7b31461028c5780631675f455146102b557806318160ddd146102f2576101b7565b80630116bc2d146101bc57806301ffc9a7146101e757806306fdde0314610224575b600080fd5b3480156101c857600080fd5b506101d16106b9565b6040516101de9190611f92565b60405180910390f35b3480156101f357600080fd5b5061020e60048036038101906102099190612019565b6106cc565b60405161021b9190611f92565b60405180910390f35b34801561023057600080fd5b506102396107ae565b60405161024691906120d6565b60405180910390f35b34801561025b57600080fd5b506102766004803603810190610271919061212e565b610840565b604051610283919061219c565b60405180910390f35b34801561029857600080fd5b506102b360048036038101906102ae91906121e3565b610886565b005b3480156102c157600080fd5b506102dc60048036038101906102d7919061212e565b61099d565b6040516102e991906120d6565b60405180910390f35b3480156102fe57600080fd5b50610307610a19565b6040516103149190612232565b60405180910390f35b34801561032957600080fd5b50610344600480360381019061033f919061224d565b610a1f565b005b34801561035257600080fd5b5061035b610a7f565b005b34801561036957600080fd5b50610384600480360381019061037f919061224d565b610b58565b005b34801561039257600080fd5b5061039b610b78565b6040516103a89190612232565b60405180910390f35b3480156103bd57600080fd5b506103d860048036038101906103d39190612305565b610b7e565b005b3480156103e657600080fd5b5061040160048036038101906103fc919061212e565b610b9c565b60405161040e919061219c565b60405180910390f35b34801561042357600080fd5b5061042c610c4d565b6040516104399190612232565b60405180910390f35b34801561044e57600080fd5b5061046960048036038101906104649190612352565b610c53565b6040516104769190612232565b60405180910390f35b34801561048b57600080fd5b50610494610d0a565b005b3480156104a257600080fd5b506104bd60048036038101906104b891906123ab565b610d1e565b005b3480156104cb57600080fd5b506104d4610d43565b6040516104e191906123f9565b60405180910390f35b3480156104f657600080fd5b506104ff610d69565b60405161050c919061219c565b60405180910390f35b34801561052157600080fd5b5061052a610d93565b60405161053791906120d6565b60405180910390f35b61055a6004803603810190610555919061212e565b610e25565b005b34801561056857600080fd5b50610583600480360381019061057e9190612414565b610ffc565b005b34801561059157600080fd5b506105ac60048036038101906105a79190612584565b611012565b005b3480156105ba57600080fd5b506105d560048036038101906105d0919061212e565b611074565b6040516105e291906120d6565b60405180910390f35b3480156105f757600080fd5b506106006110dc565b60405161060d9190612232565b60405180910390f35b34801561062257600080fd5b5061063d60048036038101906106389190612607565b6110e2565b60405161064a9190611f92565b60405180910390f35b34801561065f57600080fd5b5061067a60048036038101906106759190612352565b611176565b6040516106879190612232565b60405180910390f35b34801561069c57600080fd5b506106b760048036038101906106b29190612352565b61118e565b005b600b60009054906101000a900460ff1681565b60007f80ac58cd000000000000000000000000000000000000000000000000000000007bffffffffffffffffffffffffffffffffffffffffffffffffffffffff1916827bffffffffffffffffffffffffffffffffffffffffffffffffffffffff1916148061079757507f5b5e139f000000000000000000000000000000000000000000000000000000007bffffffffffffffffffffffffffffffffffffffffffffffffffffffff1916827bffffffffffffffffffffffffffffffffffffffffffffffffffffffff1916145b806107a757506107a682611211565b5b9050919050565b6060600080546107bd90612676565b80601f01602080910402602001604051908101604052809291908181526020018280546107e990612676565b80156108365780601f1061080b57610100808354040283529160200191610836565b820191906000526020600020905b81548152906001019060200180831161081957829003601f168201915b5050505050905090565b600061084b8261127b565b6004600083815260200190815260200160002060009054906101000a900473ffffffffffffffffffffffffffffffffffffffff169050919050565b600061089182610b9c565b90508073ffffffffffffffffffffffffffffffffffffffff168373ffffffffffffffffffffffffffffffffffffffff1603610901576040517f08c379a00000000000000000000000000000000000000000000000000000000081526004016108f890612719565b60405180910390fd5b8073ffffffffffffffffffffffffffffffffffffffff166109206112c6565b73ffffffffffffffffffffffffffffffffffffffff16148061094f575061094e816109496112c6565b6110e2565b5b61098e576040517f08c379a0000000000000000000000000000000000000000000000000000000008152600401610985906127ab565b60405180910390fd5b61099883836112ce565b505050565b60606109a882611387565b6109e7576040517f08c379a00000000000000000000000000000000000000000000000000000000081526004016109de90612817565b60405180910390fd5b600c6109f2836113f3565b604051602001610a03929190612957565b6040516020818303038152906040529050919050565b60085481565b610a30610a2a6112c6565b82611553565b610a6f576040517f08c379a0000000000000000000000000000000000000000000000000000000008152600401610a66906129f8565b60405180910390fd5b610a7a8383836115e8565b505050565b610a8761184e565b6000600d60009054906101000a900473ffffffffffffffffffffffffffffffffffffffff1673ffffffffffffffffffffffffffffffffffffffff1647604051610acf90612a49565b60006040518083038185875af1925050503d8060008114610b0c576040519150601f19603f3d011682016040523d82523d6000602084013e610b11565b606091505b5050905080610b55576040517f08c379a0000000000000000000000000000000000000000000000000000000008152600401610b4c90612aaa565b60405180910390fd5b50565b610b7383838360405180602001604052806000815250611012565b505050565b600a5481565b610b8661184e565b8181600c9182610b97929190612c6c565b505050565b6000806002600084815260200190815260200160002060009054906101000a900473ffffffffffffffffffffffffffffffffffffffff169050600073ffffffffffffffffffffffffffffffffffffffff168173ffffffffffffffffffffffffffffffffffffffff1603610c44576040517f08c379a0000000000000000000000000000000000000000000000000000000008152600401610c3b90612d88565b60405180910390fd5b80915050919050565b60075481565b60008073ffffffffffffffffffffffffffffffffffffffff168273ffffffffffffffffffffffffffffffffffffffff1603610cc3576040517f08c379a0000000000000000000000000000000000000000000000000000000008152600401610cba90612e1a565b60405180910390fd5b600360008373ffffffffffffffffffffffffffffffffffffffff1673ffffffffffffffffffffffffffffffffffffffff168152602001908152602001600020549050919050565b610d1261184e565b610d1c60006118cc565b565b610d2661184e565b80600b60006101000a81548160ff02191690831515021790555050565b600d60009054906101000a900473ffffffffffffffffffffffffffffffffffffffff1681565b6000600660009054906101000a900473ffffffffffffffffffffffffffffffffffffffff16905090565b606060018054610da290612676565b80601f0160208091040260200160405190810160405280929190818152602001828054610dce90612676565b8015610e1b5780601f10610df057610100808354040283529160200191610e1b565b820191906000526020600020905b815481529060010190602001808311610dfe57829003601f168201915b5050505050905090565b600b60009054906101000a900460ff16610e74576040517f08c379a0000000000000000000000000000000000000000000000000000000008152600401610e6b90612e86565b60405180910390fd5b60075481610e829190612ed5565b3414610ec3576040517f08c379a0000000000000000000000000000000000000000000000000000000008152600401610eba90612f63565b60405180910390fd5b60095481600854610ed49190612f83565b1115610f15576040517f08c379a0000000000000000000000000000000000000000000000000000000008152600401610f0c90613003565b60405180910390fd5b600a5481600e60003373ffffffffffffffffffffffffffffffffffffffff1673ffffffffffffffffffffffffffffffffffffffff16815260200190815260200160002054610f639190612f83565b1115610fa4576040517f08c379a0000000000000000000000000000000000000000000000000000000008152600401610f9b9061306f565b60405180910390fd5b60005b81811015610ff85760006001600854610fc09190612f83565b905060086000815480929190610fd59061308f565b9190505550610fe43382611992565b508080610ff09061308f565b915050610fa7565b5050565b61100e6110076112c6565b83836119b0565b5050565b61102361101d6112c6565b83611553565b611062576040517f08c379a0000000000000000000000000000000000000000000000000000000008152600401611059906129f8565b60405180910390fd5b61106e84848484611b1c565b50505050565b606061107f8261127b565b6000611089611b78565b905060008151116110a957604051806020016040528060008152506110d4565b806110b3846113f3565b6040516020016110c49291906130d7565b6040516020818303038152906040525b915050919050565b60095481565b6000600560008473ffffffffffffffffffffffffffffffffffffffff1673ffffffffffffffffffffffffffffffffffffffff16815260200190815260200160002060008373ffffffffffffffffffffffffffffffffffffffff1673ffffffffffffffffffffffffffffffffffffffff16815260200190815260200160002060009054906101000a900460ff16905092915050565b600e6020528060005260406000206000915090505481565b61119661184e565b600073ffffffffffffffffffffffffffffffffffffffff168173ffffffffffffffffffffffffffffffffffffffff1603611205576040517f08c379a00000000000000000000000000000000000000000000000000000000081526004016111fc9061316d565b60405180910390fd5b61120e816118cc565b50565b60007f01ffc9a7000000000000000000000000000000000000000000000000000000007bffffffffffffffffffffffffffffffffffffffffffffffffffffffff1916827bffffffffffffffffffffffffffffffffffffffffffffffffffffffff1916149050919050565b61128481611387565b6112c3576040517f08c379a00000000000000000000000000000000000000000000000000000000081526004016112ba90612d88565b60405180910390fd5b50565b600033905090565b816004600083815260200190815260200160002060006101000a81548173ffffffffffffffffffffffffffffffffffffffff021916908373ffffffffffffffffffffffffffffffffffffffff160217905550808273ffffffffffffffffffffffffffffffffffffffff1661134183610b9c565b73ffffffffffffffffffffffffffffffffffffffff167f8c5be1e5ebec7d5bd14f71427d1e84f3dd0314c0f7b2291e5b200ac8c7c3b92560405160405180910390a45050565b60008073ffffffffffffffffffffffffffffffffffffffff166002600084815260200190815260200160002060009054906101000a900473ffffffffffffffffffffffffffffffffffffffff1673ffffffffffffffffffffffffffffffffffffffff1614159050919050565b60606000820361143a576040518060400160405280600181526020017f3000000000000000000000000000000000000000000000000000000000000000815250905061154e565b600082905060005b6000821461146c5780806114559061308f565b915050600a8261146591906131bc565b9150611442565b60008167ffffffffffffffff81111561148857611487612459565b5b6040519080825280601f01601f1916602001820160405280156114ba5781602001600182028036833780820191505090505b5090505b60008514611547576001826114d391906131ed565b9150600a856114e29190613221565b60306114ee9190612f83565b60f81b81838151811061150457611503613252565b5b60200101907effffffffffffffffffffffffffffffffffffffffffffffffffffffffffffff1916908160001a905350600a8561154091906131bc565b94506114be565b8093505050505b919050565b60008061155f83610b9c565b90508073ffffffffffffffffffffffffffffffffffffffff168473ffffffffffffffffffffffffffffffffffffffff1614806115a157506115a081856110e2565b5b806115df57508373ffffffffffffffffffffffffffffffffffffffff166115c784610840565b73ffffffffffffffffffffffffffffffffffffffff16145b91505092915050565b8273ffffffffffffffffffffffffffffffffffffffff1661160882610b9c565b73ffffffffffffffffffffffffffffffffffffffff161461165e576040517f08c379a0000000000000000000000000000000000000000000000000000000008152600401611655906132f3565b60405180910390fd5b600073ffffffffffffffffffffffffffffffffffffffff168273ffffffffffffffffffffffffffffffffffffffff16036116cd576040517f08c379a00000000000000000000000000000000000000000000000000000000081526004016116c490613385565b60405180910390fd5b6116d8838383611b8f565b6116e36000826112ce565b6001600360008573ffffffffffffffffffffffffffffffffffffffff1673ffffffffffffffffffffffffffffffffffffffff168152602001908152602001600020600082825461173391906131ed565b925050819055506001600360008473ffffffffffffffffffffffffffffffffffffffff1673ffffffffffffffffffffffffffffffffffffffff168152602001908152602001600020600082825461178a9190612f83565b92505081905550816002600083815260200190815260200160002060006101000a81548173ffffffffffffffffffffffffffffffffffffffff021916908373ffffffffffffffffffffffffffffffffffffffff160217905550808273ffffffffffffffffffffffffffffffffffffffff168473ffffffffffffffffffffffffffffffffffffffff167fddf252ad1be2c89b69c2b068fc378daa952ba7f163c4a11628f55a4df523b3ef60405160405180910390a4611849838383611b94565b505050565b6118566112c6565b73ffffffffffffffffffffffffffffffffffffffff16611874610d69565b73ffffffffffffffffffffffffffffffffffffffff16146118ca576040517f08c379a00000000000000000000000000000000000000000000000000000000081526004016118c1906133f1565b60405180910390fd5b565b6000600660009054906101000a900473ffffffffffffffffffffffffffffffffffffffff16905081600660006101000a81548173ffffffffffffffffffffffffffffffffffffffff021916908373ffffffffffffffffffffffffffffffffffffffff1602179055508173ffffffffffffffffffffffffffffffffffffffff168173ffffffffffffffffffffffffffffffffffffffff167f8be0079c531659141344cd1fd0a4f28419497f9722a3daafe3b4186f6b6457e060405160405180910390a35050565b6119ac828260405180602001604052806000815250611b99565b5050565b8173ffffffffffffffffffffffffffffffffffffffff168373ffffffffffffffffffffffffffffffffffffffff1603611a1e576040517f08c379a0000000000000000000000000000000000000000000000000000000008152600401611a159061345d565b60405180910390fd5b80600560008573ffffffffffffffffffffffffffffffffffffffff1673ffffffffffffffffffffffffffffffffffffffff16815260200190815260200160002060008473ffffffffffffffffffffffffffffffffffffffff1673ffffffffffffffffffffffffffffffffffffffff16815260200190815260200160002060006101000a81548160ff0219169083151502179055508173ffffffffffffffffffffffffffffffffffffffff168373ffffffffffffffffffffffffffffffffffffffff167f17307eab39ab6107e8899845ad3d59bd9653f200f220920489ca2b5937696c3183604051611b0f9190611f92565b60405180910390a3505050565b611b278484846115e8565b611b3384848484611bf4565b611b72576040517f08c379a0000000000000000000000000000000000000000000000000000000008152600401611b69906134ef565b60405180910390fd5b50505050565b606060405180602001604052806000815250905090565b505050565b505050565b611ba38383611d7b565b611bb06000848484611bf4565b611bef576040517f08c379a0000000000000000000000000000000000000000000000000000000008152600401611be6906134ef565b60405180910390fd5b505050565b6000611c158473ffffffffffffffffffffffffffffffffffffffff16611f54565b15611d6e578373ffffffffffffffffffffffffffffffffffffffff1663150b7a02611c3e6112c6565b8786866040518563ffffffff1660e01b8152600401611c609493929190613564565b6020604051808303816000875af1925050508015611c9c57506040513d601f19601f82011682018060405250810190611c9991906135c5565b60015b611d1e573d8060008114611ccc576040519150601f19603f3d011682016040523d82523d6000602084013e611cd1565b606091505b506000815103611d16576040517f08c379a0000000000000000000000000000000000000000000000000000000008152600401611d0d906134ef565b60405180910390fd5b805181602001fd5b63150b7a0260e01b7bffffffffffffffffffffffffffffffffffffffffffffffffffffffff1916817bffffffffffffffffffffffffffffffffffffffffffffffffffffffff191614915050611d73565b600190505b949350505050565b600073ffffffffffffffffffffffffffffffffffffffff168273ffffffffffffffffffffffffffffffffffffffff1603611dea576040517f08c379a0000000000000000000000000000000000000000000000000000000008152600401611de19061363e565b60405180910390fd5b611df381611387565b15611e33576040517f08c379a0000000000000000000000000000000000000000000000000000000008152600401611e2a906136aa565b60405180910390fd5b611e3f60008383611b8f565b6001600360008473ffffffffffffffffffffffffffffffffffffffff1673ffffffffffffffffffffffffffffffffffffffff1681526020019081526020016000206000828254611e8f9190612f83565b92505081905550816002600083815260200190815260200160002060006101000a81548173ffffffffffffffffffffffffffffffffffffffff021916908373ffffffffffffffffffffffffffffffffffffffff160217905550808273ffffffffffffffffffffffffffffffffffffffff16600073ffffffffffffffffffffffffffffffffffffffff167fddf252ad1be2c89b69c2b068fc378daa952ba7f163c4a11628f55a4df523b3ef60405160405180910390a4611f5060008383611b94565b5050565b6000808273ffffffffffffffffffffffffffffffffffffffff163b119050919050565b60008115159050919050565b611f8c81611f77565b82525050565b6000602082019050611fa76000830184611f83565b92915050565b6000604051905090565b600080fd5b600080fd5b60007fffffffff0000000000000000000000000000000000000000000000000000000082169050919050565b611ff681611fc1565b811461200157600080fd5b50565b60008135905061201381611fed565b92915050565b60006020828403121561202f5761202e611fb7565b5b600061203d84828501612004565b91505092915050565b600081519050919050565b600082825260208201905092915050565b60005b83811015612080578082015181840152602081019050612065565b60008484015250505050565b6000601f19601f8301169050919050565b60006120a882612046565b6120b28185612051565b93506120c2818560208601612062565b6120cb8161208c565b840191505092915050565b600060208201905081810360008301526120f0818461209d565b905092915050565b6000819050919050565b61210b816120f8565b811461211657600080fd5b50565b60008135905061212881612102565b92915050565b60006020828403121561214457612143611fb7565b5b600061215284828501612119565b91505092915050565b600073ffffffffffffffffffffffffffffffffffffffff82169050919050565b60006121868261215b565b9050919050565b6121968161217b565b82525050565b60006020820190506121b1600083018461218d565b92915050565b6121c08161217b565b81146121cb57600080fd5b50565b6000813590506121dd816121b7565b92915050565b600080604083850312156121fa576121f9611fb7565b5b6000612208858286016121ce565b925050602061221985828601612119565b9150509250929050565b61222c816120f8565b82525050565b60006020820190506122476000830184612223565b92915050565b60008060006060848603121561226657612265611fb7565b5b6000612274868287016121ce565b9350506020612285868287016121ce565b925050604061229686828701612119565b9150509250925092565b600080fd5b600080fd5b600080fd5b60008083601f8401126122c5576122c46122a0565b5b8235905067ffffffffffffffff8111156122e2576122e16122a5565b5b6020830191508360018202830111156122fe576122fd6122aa565b5b9250929050565b6000806020838503121561231c5761231b611fb7565b5b600083013567ffffffffffffffff81111561233a57612339611fbc565b5b612346858286016122af565b92509250509250929050565b60006020828403121561236857612367611fb7565b5b6000612376848285016121ce565b91505092915050565b61238881611f77565b811461239357600080fd5b50565b6000813590506123a58161237f565b92915050565b6000602082840312156123c1576123c0611fb7565b5b60006123cf84828501612396565b91505092915050565b60006123e38261215b565b9050919050565b6123f3816123d8565b82525050565b600060208201905061240e60008301846123ea565b92915050565b6000806040838503121561242b5761242a611fb7565b5b6000612439858286016121ce565b925050602061244a85828601612396565b9150509250929050565b600080fd5b7f4e487b7100000000000000000000000000000000000000000000000000000000600052604160045260246000fd5b6124918261208c565b810181811067ffffffffffffffff821117156124b0576124af612459565b5b80604052505050565b60006124c3611fad565b90506124cf8282612488565b919050565b600067ffffffffffffffff8211156124ef576124ee612459565b5b6124f88261208c565b9050602081019050919050565b82818337600083830152505050565b6000612527612522846124d4565b6124b9565b90508281526020810184848401111561254357612542612454565b5b61254e848285612505565b509392505050565b600082601f83011261256b5761256a6122a0565b5b813561257b848260208601612514565b91505092915050565b6000806000806080858703121561259e5761259d611fb7565b5b60006125ac878288016121ce565b94505060206125bd878288016121ce565b93505060406125ce87828801612119565b925050606085013567ffffffffffffffff8111156125ef576125ee611fbc565b5b6125fb87828801612556565b91505092959194509250565b6000806040838503121561261e5761261d611fb7565b5b600061262c858286016121ce565b925050602061263d858286016121ce565b9150509250929050565b7f4e487b7100000000000000000000000000000000000000000000000000000000600052602260045260246000fd5b6000600282049050600182168061268e57607f821691505b6020821081036126a1576126a0612647565b5b50919050565b7f4552433732313a20617070726f76616c20746f2063757272656e74206f776e6560008201527f7200000000000000000000000000000000000000000000000000000000000000602082015250565b6000612703602183612051565b915061270e826126a7565b604082019050919050565b60006020820190508181036000830152612732816126f6565b9050919050565b7f4552433732313a20617070726f76652063616c6c6572206973206e6f7420746f60008201527f6b656e206f776e6572206e6f7220617070726f76656420666f7220616c6c0000602082015250565b6000612795603e83612051565b91506127a082612739565b604082019050919050565b600060208201905081810360008301526127c481612788565b9050919050565b7f546f6b656e20646f6573206e6f74206578697374000000000000000000000000600082015250565b6000612801601483612051565b915061280c826127cb565b602082019050919050565b60006020820190508181036000830152612830816127f4565b9050919050565b600081905092915050565b60008190508160005260206000209050919050565b6000815461286481612676565b61286e8186612837565b94506001821660008114612889576001811461289e576128d1565b60ff19831686528115158202860193506128d1565b6128a785612842565b60005b838110156128c9578154818901526001820191506020810190506128aa565b838801955050505b50505092915050565b60006128e582612046565b6128ef8185612837565b93506128ff818560208601612062565b80840191505092915050565b7f2e6a736f6e000000000000000000000000000000000000000000000000000000600082015250565b6000612941600583612837565b915061294c8261290b565b600582019050919050565b60006129638285612857565b915061296f82846128da565b915061297a82612934565b91508190509392505050565b7f4552433732313a2063616c6c6572206973206e6f7420746f6b656e206f776e6560008201527f72206e6f7220617070726f766564000000000000000000000000000000000000602082015250565b60006129e2602e83612051565b91506129ed82612986565b604082019050919050565b60006020820190508181036000830152612a11816129d5565b9050919050565b600081905092915050565b50565b6000612a33600083612a18565b9150612a3e82612a23565b600082019050919050565b6000612a5482612a26565b9150819050919050565b7f7769746864726177206661696c65640000000000000000000000000000000000600082015250565b6000612a94600f83612051565b9150612a9f82612a5e565b602082019050919050565b60006020820190508181036000830152612ac381612a87565b9050919050565b600082905092915050565b60006020601f8301049050919050565b600082821b905092915050565b600060088302612b227fffffffffffffffffffffffffffffffffffffffffffffffffffffffffffffffff82612ae5565b612b2c8683612ae5565b95508019841693508086168417925050509392505050565b6000819050919050565b6000612b69612b64612b5f846120f8565b612b44565b6120f8565b9050919050565b6000819050919050565b612b8383612b4e565b612b97612b8f82612b70565b848454612af2565b825550505050565b600090565b612bac612b9f565b612bb7818484612b7a565b505050565b5b81811015612bdb57612bd0600082612ba4565b600181019050612bbd565b5050565b601f821115612c2057612bf181612842565b612bfa84612ad5565b81016020851015612c09578190505b612c1d612c1585612ad5565b830182612bbc565b50505b505050565b600082821c905092915050565b6000612c4360001984600802612c25565b1980831691505092915050565b6000612c5c8383612c32565b9150826002028217905092915050565b612c768383612aca565b67ffffffffffffffff811115612c8f57612c8e612459565b5b612c998254612676565b612ca4828285612bdf565b6000601f831160018114612cd35760008415612cc1578287013590505b612ccb8582612c50565b865550612d33565b601f198416612ce186612842565b60005b82811015612d0957848901358255600182019150602085019450602081019050612ce4565b86831015612d265784890135612d22601f891682612c32565b8355505b6001600288020188555050505b50505050505050565b7f4552433732313a20696e76616c696420746f6b656e2049440000000000000000600082015250565b6000612d72601883612051565b9150612d7d82612d3c565b602082019050919050565b60006020820190508181036000830152612da181612d65565b9050919050565b7f4552433732313a2061646472657373207a65726f206973206e6f74206120766160008201527f6c6964206f776e65720000000000000000000000000000000000000000000000602082015250565b6000612e04602983612051565b9150612e0f82612da8565b604082019050919050565b60006020820190508181036000830152612e3381612df7565b9050919050565b7f6d696e74696e67206e6f7420656e61626c656400000000000000000000000000600082015250565b6000612e70601383612051565b9150612e7b82612e3a565b602082019050919050565b60006020820190508181036000830152612e9f81612e63565b9050919050565b7f4e487b7100000000000000000000000000000000000000000000000000000000600052601160045260246000fd5b6000612ee0826120f8565b9150612eeb836120f8565b9250828202612ef9816120f8565b91508282048414831517612f1057612f0f612ea6565b5b5092915050565b7f77726f6e67206d696e742076616c756500000000000000000000000000000000600082015250565b6000612f4d601083612051565b9150612f5882612f17565b602082019050919050565b60006020820190508181036000830152612f7c81612f40565b9050919050565b6000612f8e826120f8565b9150612f99836120f8565b9250828201905080821115612fb157612fb0612ea6565b5b92915050565b7f736f6c64206f7574000000000000000000000000000000000000000000000000600082015250565b6000612fed600883612051565b9150612ff882612fb7565b602082019050919050565b6000602082019050818103600083015261301c81612fe0565b9050919050565b7f657863656564206d61782077616c6c6574000000000000000000000000000000600082015250565b6000613059601183612051565b915061306482613023565b602082019050919050565b600060208201905081810360008301526130888161304c565b9050919050565b600061309a826120f8565b91507fffffffffffffffffffffffffffffffffffffffffffffffffffffffffffffffff82036130cc576130cb612ea6565b5b600182019050919050565b60006130e382856128da565b91506130ef82846128da565b91508190509392505050565b7f4f776e61626c653a206e6577206f776e657220697320746865207a65726f206160008201527f6464726573730000000000000000000000000000000000000000000000000000602082015250565b6000613157602683612051565b9150613162826130fb565b604082019050919050565b600060208201905081810360008301526131868161314a565b9050919050565b7f4e487b7100000000000000000000000000000000000000000000000000000000600052601260045260246000fd5b60006131c7826120f8565b91506131d2836120f8565b9250826131e2576131e161318d565b5b828204905092915050565b60006131f8826120f8565b9150613203836120f8565b925082820390508181111561321b5761321a612ea6565b5b92915050565b600061322c826120f8565b9150613237836120f8565b9250826132475761324661318d565b5b828206905092915050565b7f4e487b7100000000000000000000000000000000000000000000000000000000600052603260045260246000fd5b7f4552433732313a207472616e736665722066726f6d20696e636f72726563742060008201527f6f776e6572000000000000000000000000000000000000000000000000000000602082015250565b60006132dd602583612051565b91506132e882613281565b604082019050919050565b6000602082019050818103600083015261330c816132d0565b9050919050565b7f4552433732313a207472616e7366657220746f20746865207a65726f2061646460008201527f7265737300000000000000000000000000000000000000000000000000000000602082015250565b600061336f602483612051565b915061337a82613313565b604082019050919050565b6000602082019050818103600083015261339e81613362565b9050919050565b7f4f776e61626c653a2063616c6c6572206973206e6f7420746865206f776e6572600082015250565b60006133db602083612051565b91506133e6826133a5565b602082019050919050565b6000602082019050818103600083015261340a816133ce565b9050919050565b7f4552433732313a20617070726f766520746f2063616c6c657200000000000000600082015250565b6000613447601983612051565b915061345282613411565b602082019050919050565b600060208201905081810360008301526134768161343a565b9050919050565b7f4552433732313a207472616e7366657220746f206e6f6e20455243373231526560008201527f63656976657220696d706c656d656e7465720000000000000000000000000000602082015250565b60006134d9603283612051565b91506134e48261347d565b604082019050919050565b60006020820190508181036000830152613508816134cc565b9050919050565b600081519050919050565b600082825260208201905092915050565b60006135368261350f565b613540818561351a565b9350613550818560208601612062565b6135598161208c565b840191505092915050565b6000608082019050613579600083018761218d565b613586602083018661218d565b6135936040830185612223565b81810360608301526135a5818461352b565b905095945050505050565b6000815190506135bf81611fed565b92915050565b6000602082840312156135db576135da611fb7565b5b60006135e9848285016135b0565b91505092915050565b7f4552433732313a206d696e7420746f20746865207a65726f2061646472657373600082015250565b6000613628602083612051565b9150613633826135f2565b602082019050919050565b600060208201905081810360008301526136578161361b565b9050919050565b7f4552433732313a20746f6b656e20616c7265616479206d696e74656400000000600082015250565b6000613694601c83612051565b915061369f8261365e565b602082019050919050565b600060208201905081810360008301526136c381613687565b905091905056fea264697066735822122037b179f3854111077ca7d6f4fec363ae036a4e649a653bf9bd79e0f678b1db9d64736f6c63430008110033",
    "linkReferences": {},
    "deployedLinkReferences": {}
}